{
  "_format": "hh-sol-artifact-1",
  "contractName": "WavePortal",
  "sourceName": "contracts/WavePortal.sol",
  "abi": [
    {
      "inputs": [],
      "stateMutability": "payable",
      "type": "constructor"
    },
    {
      "anonymous": false,
      "inputs": [
        {
          "indexed": true,
          "internalType": "address",
          "name": "from",
          "type": "address"
        },
        {
          "indexed": false,
          "internalType": "uint256",
          "name": "timestamp",
          "type": "uint256"
        },
        {
          "indexed": false,
          "internalType": "string",
          "name": "message",
          "type": "string"
        }
      ],
      "name": "NewWave",
      "type": "event"
    },
    {
      "inputs": [],
      "name": "canWave",
      "outputs": [
        {
          "internalType": "bool",
          "name": "",
          "type": "bool"
        }
      ],
      "stateMutability": "view",
      "type": "function"
    },
    {
      "inputs": [],
      "name": "getAllWaves",
      "outputs": [
        {
          "components": [
            {
              "internalType": "address",
              "name": "waver",
              "type": "address"
            },
            {
              "internalType": "string",
              "name": "message",
              "type": "string"
            },
            {
              "internalType": "uint256",
              "name": "timestamp",
              "type": "uint256"
            },
            {
              "internalType": "uint256",
              "name": "seed",
              "type": "uint256"
            }
          ],
          "internalType": "struct WavePortal.Wave[]",
          "name": "",
          "type": "tuple[]"
        }
      ],
      "stateMutability": "view",
      "type": "function"
    },
    {
      "inputs": [],
      "name": "getTotalWaves",
      "outputs": [
        {
          "internalType": "uint256",
          "name": "",
          "type": "uint256"
        }
      ],
      "stateMutability": "view",
      "type": "function"
    },
    {
      "inputs": [
        {
          "internalType": "address",
          "name": "",
          "type": "address"
        }
      ],
      "name": "lastWavedAt",
      "outputs": [
        {
          "internalType": "uint256",
          "name": "",
          "type": "uint256"
        }
      ],
      "stateMutability": "view",
      "type": "function"
    },
    {
      "inputs": [
        {
          "internalType": "string",
          "name": "_message",
          "type": "string"
        }
      ],
      "name": "wave",
      "outputs": [],
      "stateMutability": "nonpayable",
      "type": "function"
    }
  ],
  "bytecode": "0x60806040526200004f6040518060400160405280601981526020017f57652068617665206265656e20636f6e737472756374656421000000000000008152506200007760201b620006971760201c565b606444426200005f91906200017c565b6200006b9190620001e6565b600181905550620002dc565b62000117816040516024016200008e9190620002b8565b6040516020818303038152906040527f41304fac000000000000000000000000000000000000000000000000000000007bffffffffffffffffffffffffffffffffffffffffffffffffffffffff19166020820180517bffffffffffffffffffffffffffffffffffffffffffffffffffffffff83818316178352505050506200011a60201b60201c565b50565b60008151905060006a636f6e736f6c652e6c6f679050602083016000808483855afa5050505050565b6000819050919050565b7f4e487b7100000000000000000000000000000000000000000000000000000000600052601160045260246000fd5b6000620001898262000143565b9150620001968362000143565b9250828201905080821115620001b157620001b06200014d565b5b92915050565b7f4e487b7100000000000000000000000000000000000000000000000000000000600052601260045260246000fd5b6000620001f38262000143565b9150620002008362000143565b925082620002135762000212620001b7565b5b828206905092915050565b600081519050919050565b600082825260208201905092915050565b60005b838110156200025a5780820151818401526020810190506200023d565b60008484015250505050565b6000601f19601f8301169050919050565b600062000284826200021e565b62000290818562000229565b9350620002a28185602086016200023a565b620002ad8162000266565b840191505092915050565b60006020820190508181036000830152620002d4818462000277565b905092915050565b6112f980620002ec6000396000f3fe608060405234801561001057600080fd5b50600436106100575760003560e01c80632d8279401461005c578063449d46c01461007a5780639a2cdc0814610096578063a42a4663146100b4578063bd43a908146100e4575b600080fd5b610064610102565b6040516100719190610810565b60405180910390f35b610094600480360381019061008f9190610985565b610157565b005b61009e61051b565b6040516100ab91906109e7565b60405180910390f35b6100ce60048036038101906100c99190610a60565b610524565b6040516100db91906109e7565b60405180910390f35b6100ec61053c565b6040516100f99190610c4f565b60405180910390f35b600042603c600360003373ffffffffffffffffffffffffffffffffffffffff1673ffffffffffffffffffffffffffffffffffffffff168152602001908152602001600020546101519190610ca0565b10905090565b42603c600360003373ffffffffffffffffffffffffffffffffffffffff1673ffffffffffffffffffffffffffffffffffffffff168152602001908152602001600020546101a49190610ca0565b106101e4576040517f08c379a00000000000000000000000000000000000000000000000000000000081526004016101db90610d31565b60405180910390fd5b42600360003373ffffffffffffffffffffffffffffffffffffffff1673ffffffffffffffffffffffffffffffffffffffff16815260200190815260200160002081905550600160008082825461023a9190610ca0565b925050819055506102806040518060400160405280600d81526020017f257320686173207761766564210000000000000000000000000000000000000081525033610730565b606460015442446102919190610ca0565b61029b9190610ca0565b6102a59190610d80565b600181905550600260405180608001604052803373ffffffffffffffffffffffffffffffffffffffff168152602001838152602001428152602001600154815250908060018154018082558091505060019003906000526020600020906004020160009091909190915060008201518160000160006101000a81548173ffffffffffffffffffffffffffffffffffffffff021916908373ffffffffffffffffffffffffffffffffffffffff160217905550602082015181600101908161036b9190610fbd565b50604082015181600201556060820151816003015550506032600154116104c8576103cb6040518060400160405280600781526020017f257320776f6e210000000000000000000000000000000000000000000000000081525033610730565b6000655af3107a4000905047811115610419576040517f08c379a000000000000000000000000000000000000000000000000000000000815260040161041090611101565b60405180910390fd5b60003373ffffffffffffffffffffffffffffffffffffffff168260405161043f90611152565b60006040518083038185875af1925050503d806000811461047c576040519150601f19603f3d011682016040523d82523d6000602084013e610481565b606091505b50509050806104c5576040517f08c379a00000000000000000000000000000000000000000000000000000000081526004016104bc906111d9565b60405180910390fd5b50505b3373ffffffffffffffffffffffffffffffffffffffff167f5f7e16dc676677766a70e9c5628aa6c54ddb8b6e5188e2ae1e1f17f1ffbea7164283604051610510929190611232565b60405180910390a250565b60008054905090565b60036020528060005260406000206000915090505481565b60606002805480602002602001604051908101604052809291908181526020016000905b8282101561068e57838290600052602060002090600402016040518060800160405290816000820160009054906101000a900473ffffffffffffffffffffffffffffffffffffffff1673ffffffffffffffffffffffffffffffffffffffff1673ffffffffffffffffffffffffffffffffffffffff1681526020016001820180546105e990610de0565b80601f016020809104026020016040519081016040528092919081815260200182805461061590610de0565b80156106625780601f1061063757610100808354040283529160200191610662565b820191906000526020600020905b81548152906001019060200180831161064557829003601f168201915b505050505081526020016002820154815260200160038201548152505081526020019060010190610560565b50505050905090565b61072d816040516024016106ab9190611262565b6040516020818303038152906040527f41304fac000000000000000000000000000000000000000000000000000000007bffffffffffffffffffffffffffffffffffffffffffffffffffffffff19166020820180517bffffffffffffffffffffffffffffffffffffffffffffffffffffffff83818316178352505050506107cc565b50565b6107c88282604051602401610746929190611293565b6040516020818303038152906040527f319af333000000000000000000000000000000000000000000000000000000007bffffffffffffffffffffffffffffffffffffffffffffffffffffffff19166020820180517bffffffffffffffffffffffffffffffffffffffffffffffffffffffff83818316178352505050506107cc565b5050565b60008151905060006a636f6e736f6c652e6c6f679050602083016000808483855afa5050505050565b60008115159050919050565b61080a816107f5565b82525050565b60006020820190506108256000830184610801565b92915050565b6000604051905090565b600080fd5b600080fd5b600080fd5b600080fd5b6000601f19601f8301169050919050565b7f4e487b7100000000000000000000000000000000000000000000000000000000600052604160045260246000fd5b61089282610849565b810181811067ffffffffffffffff821117156108b1576108b061085a565b5b80604052505050565b60006108c461082b565b90506108d08282610889565b919050565b600067ffffffffffffffff8211156108f0576108ef61085a565b5b6108f982610849565b9050602081019050919050565b82818337600083830152505050565b6000610928610923846108d5565b6108ba565b90508281526020810184848401111561094457610943610844565b5b61094f848285610906565b509392505050565b600082601f83011261096c5761096b61083f565b5b813561097c848260208601610915565b91505092915050565b60006020828403121561099b5761099a610835565b5b600082013567ffffffffffffffff8111156109b9576109b861083a565b5b6109c584828501610957565b91505092915050565b6000819050919050565b6109e1816109ce565b82525050565b60006020820190506109fc60008301846109d8565b92915050565b600073ffffffffffffffffffffffffffffffffffffffff82169050919050565b6000610a2d82610a02565b9050919050565b610a3d81610a22565b8114610a4857600080fd5b50565b600081359050610a5a81610a34565b92915050565b600060208284031215610a7657610a75610835565b5b6000610a8484828501610a4b565b91505092915050565b600081519050919050565b600082825260208201905092915050565b6000819050602082019050919050565b610ac281610a22565b82525050565b600081519050919050565b600082825260208201905092915050565b60005b83811015610b02578082015181840152602081019050610ae7565b60008484015250505050565b6000610b1982610ac8565b610b238185610ad3565b9350610b33818560208601610ae4565b610b3c81610849565b840191505092915050565b610b50816109ce565b82525050565b6000608083016000830151610b6e6000860182610ab9565b5060208301518482036020860152610b868282610b0e565b9150506040830151610b9b6040860182610b47565b506060830151610bae6060860182610b47565b508091505092915050565b6000610bc58383610b56565b905092915050565b6000602082019050919050565b6000610be582610a8d565b610bef8185610a98565b935083602082028501610c0185610aa9565b8060005b85811015610c3d5784840389528151610c1e8582610bb9565b9450610c2983610bcd565b925060208a01995050600181019050610c05565b50829750879550505050505092915050565b60006020820190508181036000830152610c698184610bda565b905092915050565b7f4e487b7100000000000000000000000000000000000000000000000000000000600052601160045260246000fd5b6000610cab826109ce565b9150610cb6836109ce565b9250828201905080821115610cce57610ccd610c71565b5b92915050565b600082825260208201905092915050565b7f576169742031356d000000000000000000000000000000000000000000000000600082015250565b6000610d1b600883610cd4565b9150610d2682610ce5565b602082019050919050565b60006020820190508181036000830152610d4a81610d0e565b9050919050565b7f4e487b7100000000000000000000000000000000000000000000000000000000600052601260045260246000fd5b6000610d8b826109ce565b9150610d96836109ce565b925082610da657610da5610d51565b5b828206905092915050565b7f4e487b7100000000000000000000000000000000000000000000000000000000600052602260045260246000fd5b60006002820490506001821680610df857607f821691505b602082108103610e0b57610e0a610db1565b5b50919050565b60008190508160005260206000209050919050565b60006020601f8301049050919050565b600082821b905092915050565b600060088302610e737fffffffffffffffffffffffffffffffffffffffffffffffffffffffffffffffff82610e36565b610e7d8683610e36565b95508019841693508086168417925050509392505050565b6000819050919050565b6000610eba610eb5610eb0846109ce565b610e95565b6109ce565b9050919050565b6000819050919050565b610ed483610e9f565b610ee8610ee082610ec1565b848454610e43565b825550505050565b600090565b610efd610ef0565b610f08818484610ecb565b505050565b5b81811015610f2c57610f21600082610ef5565b600181019050610f0e565b5050565b601f821115610f7157610f4281610e11565b610f4b84610e26565b81016020851015610f5a578190505b610f6e610f6685610e26565b830182610f0d565b50505b505050565b600082821c905092915050565b6000610f9460001984600802610f76565b1980831691505092915050565b6000610fad8383610f83565b9150826002028217905092915050565b610fc682610ac8565b67ffffffffffffffff811115610fdf57610fde61085a565b5b610fe98254610de0565b610ff4828285610f30565b600060209050601f8311600181146110275760008415611015578287015190505b61101f8582610fa1565b865550611087565b601f19841661103586610e11565b60005b8281101561105d57848901518255600182019150602085019450602081019050611038565b8683101561107a5784890151611076601f891682610f83565b8355505b6001600288020188555050505b505050505050565b7f547279696e6720746f207769746864726177206d6f7265206d6f6e657920746860008201527f616e207468657920636f6e7472616374206861732e0000000000000000000000602082015250565b60006110eb603583610cd4565b91506110f68261108f565b604082019050919050565b6000602082019050818103600083015261111a816110de565b9050919050565b600081905092915050565b50565b600061113c600083611121565b91506111478261112c565b600082019050919050565b600061115d8261112f565b9150819050919050565b7f4661696c656420746f207769746864726177206d6f6e65792066726f6d20636f60008201527f6e74726163742e00000000000000000000000000000000000000000000000000602082015250565b60006111c3602783610cd4565b91506111ce82611167565b604082019050919050565b600060208201905081810360008301526111f2816111b6565b9050919050565b600061120482610ac8565b61120e8185610cd4565b935061121e818560208601610ae4565b61122781610849565b840191505092915050565b600060408201905061124760008301856109d8565b818103602083015261125981846111f9565b90509392505050565b6000602082019050818103600083015261127c81846111f9565b905092915050565b61128d81610a22565b82525050565b600060408201905081810360008301526112ad81856111f9565b90506112bc6020830184611284565b939250505056fea26469706673582212203d222816d9926f360d7630a0f7a93e996324124fe909c79314a81caa0851201764736f6c63430008120033",
  "linkReferences": {},
  "deployedLinkReferences": {}
}